:10000000882C0020B11E0000E91C0000AD1E00007D
:10001000AD1E0000AD1E0000AD1E0000AD1E0000B4
:10002000000000000000000000000000AD1E000005
:10003000AD1E000000000000AD1E0000AD1E00005F
:100040009D0F0000110F00002D1000007510000022
:1000500025160000B9170000D9180000B9190000D2
:10006000ED100000ED1000005D1100000348044B8E
:10007000834202D0034B03B118477047DC010020D4
:10008000DC01002000000000064B0749C91A891056
:1000900048BF0131491003D0044B0BB10148184748
:1000A000704700BFDC010020DC01002000000000E0
:1000B00010B5064C237843B9FFF7D8FF044B13B1B2
:1000C0000448AFF300800123237010BDF801002025
:1000D000000000004C63000008B5054B1BB105494A
:1000E0000548AFF30080BDE80840FFF7CDBF00BF73
:1000F00000000000FC0100204C6300002DE9F04FDF
:100100002DED068B002485B004224FF48271DA486D
:1001100001F032F910220121D74801F02DF9102207
:100120000021D54801F028F910224FF40071D2487F
:1001300001F022F905224FF48161CF4801F01CF94A
:10014000052240F20741CC4801F016F900224FF495
:100150008271C94801F02CF821460DF10E02C64803
:100160008DF80E408DF80F4001F010F84FF400713B
:100170000DF10F02C04801F009F89DF80E209DF81E
:100180000F30DFF8788343EA420388F8003000F04C
:100190001BFD00F015FC204600F04EFB204600F051
:1001A0006FFB012500F0F2FB10230A201946B34A29
:1001B000009500F0E3FC242110230846B04A009586
:1001C00000F0DCFC9FEDAF8A00F098FBDFEDAEAAFB
:1001D000DFEDAE9ADFEDAE8A9FEDAE9A9FEDAEAA4F
:1001E000AE4DAF4EAF4FDFF818B3DFF818A3DFF80E
:1001F00018930121642001F04BFD2A8A0134053255
:10020000B2F57A7FA4B2C0F0C681012233780133FF
:10021000DBB2642B28BF00234FF482719648337001
:1002200000F0C6FF41F6991204EB440303EB0313FD
:1002300003EB032304EB8303C3F34E0141EAC3330F
:100240009BB29342D5D801213B688B480B440DF1FA
:100250000F023B608DF80F1000F098FF9DF80F30F3
:10026000002B00F0A4810023CBF800308E4B1B68DC
:10027000132B40F2AA8101238C4A13700123AB7423
:100280009AF8003093B9DFED8A7A95ED007AB4EEF2
:10029000E77AF1EE10FA2B8A48BFC5ED007AB32B4E
:1002A00098BFB42385ED038A98BF2B8201230021D8
:1002B0000DF10E0270488AF800308DF80E108DF89E
:1002C0000F1000F063FF4FF400710DF10F026A4848
:1002D00000F05CFF9DF80E009DF80F30754943EA71
:1002E000400398F800005BB288F8003043EA8003CE
:1002F0007148DBB2C3563868704A01FB00F0D9F888
:100300000010B2EBB00F0B44C9F80030FFF471AF2E
:1003100095ED027AC7EE297AF5EEC07AA97C684895
:10032000002948FE2A5AF1EE10FA02680360654877
:10033000A3EB0203026848BFF1EE677A134403603F
:10034000614802681432632A026000F25C819FED0A
:100350005F6ADFED5F6A27EEA97A67EE867A67EE5D
:10036000A67AF4EEE87AF1EE10FA85ED027AC8BFCB
:10037000DFED477A95ED017A77EEC77A67EE897AF5
:1003800077EE877AF5EEC07AF1EE10FA4CBFB1EE57
:10039000677AB0EE677AB4EEE87AF1EE10FAC5ED5E
:1003A000017A00F38D81DFED4B6AB4EE667AF1EEEF
:1003B00010FA48BFB0EE487A474BD3ED006A37EEEB
:1003C000666AB4EECA6AF1EE10FA00F176819FED2A
:1003D000435AB4EE456AF1EE10FA35FE066A76EE3F
:1003E000866A9FED3F6A37EE667A27EE067A37EE29
:1003F000267AB5EEC07AF1EE10FA00F16481B4EE1F
:10040000687AF1EE10FA38FE877A334BD5ED006A40
:1004100083ED007A41B99FED3F7AF4EEC76AF1EEC1
:1004200010FA98BF83ED008AF4EEE65AF1EE10FA66
:100430009FED2C7A40F3138176EE876AF4EEE65A4C
:10044000F1EE10FA40F11381C5ED005AF0EE656A45
:100450009FED255A76EEE77A9FED246A9FED243AC8
:1004600026EE855A9FED237ADFED233A27EE866A42
:1004700035EE035A50E000BFBC0600208445000062
:1004800090450000000000000AD7233D00007042A4
:100490009A99193FCDCC4C3E6F1283BB04000020CB
:1004A000300200202C020020240200200000002046
:1004B0006F12033CCDCCCCCC98450000CCCCCC0CFE
:1004C0003402002018020020140200203BBFF63E38
:1004D000C634A03D0AD7A33B200200206F12833B05
:1004E000CDCC4C3D17B7D1390080A2443333B33E55
:1004F00000005C430AD7A33C00007A44310200208C
:10050000280200201C02002038020020CDCCCCBEE6
:10051000CDCCCC3E6F12833A26EE076AD5ED035A56
:1005200027EE894A85EE237A36EE256A37EE047A7D
:10053000F7EE004A37EE067AB4EEE47AF1EE10FAFE
:1005400040F39880F5EEC07AF1EE10FAB0EE647ADE
:1005500048BFF0EE465A5FED137AF4EEE75AF1EE3B
:1005600010FA00F196805FED167AF4EE675AF1EE1C
:1005700010FA77FEA55A5FED197AF4EEE76AF1EE0C
:1005800010FAC5ED035A32D8002385ED038A85EDB4
:10059000018A2B822DE6092A337814D95149A1FB0F
:1005A0000212B3EBD20F34BF012200222FE64E4AD3
:1005B0001360DBF80030132B13D900234B4A137060
:1005C0000023AB7473E6002221E60133464A142B64
:1005D00013603FF450AE454B1B78002B7FF44EAEBA
:1005E000EEE70133142BCBF80030F4D1E5E7002916
:1005F00052D0DFED3F7AB4EEE77AF1EE10FA4BD548
:10060000B4232B82F5E507EE902A9FED3A4AF8EEE7
:10061000676A002BB8BF5B4207EE103A86EE846A29
:10062000DFED354AB8EEC77A26EE246ADFED337A7D
:10063000C7EE066A9FED325A66EEA77A67EE857AB4
:10064000F5EEC07A0023F1EE10FA2E4A26EEA97AD2
:1006500013602D4A48BFF1EE677A136081E676EEAB
:10066000C76AF4EEE65AF1EE10FA3FF7EDAEC5EDCB
:10067000006AEDE6B5EEC07AF1EE10FA29D4F0EE9C
:10068000465ADFED227AF4EEE75AF1EE10FA7FF5E2
:100690006AAFF0EE675A6EE7F6EE087AB4EEE77AE4
:1006A000F1EE10FA12DCDFED137A27EE277ABCEEBA
:1006B000C77A17EE103A9BB2A3E7B0EE4A6A8EE60D
:1006C000B0EE687A78E6B0EE487A9EE640F2EE2325
:1006D00097E7F5EEC07AF1EE10FAB0EE487A76FEC2
:1006E000255A38E7CDCCCCCC2402002000000020D5
:1006F000EC51383E00007A44000050423BBFF63EC9
:10070000C634A03D1802002014020020CDCCCCBE7F
:10071000022800D070470249024800F023BE00BF03
:10072000905F0000BC06002070B5082504461E4EF0
:10073000E20940F20741304600F03AFD0121022073
:1007400001F0A6FA01224FF48161304600F030FD3D
:100750000121022001F09CFA00224FF48161304611
:1007600000F026FD6A1E640012F0FF05E4B2DFD13E
:10077000012240F207410C4800F01AFD012102203D
:1007800001F086FA01224FF48161074800F010FD64
:100790000121022001F07CFA2A46BDE870404FF4A6
:1007A0008161014800F004BDBC06002010B5114C69
:1007B000012240F20741204600F0FAFC01224FF4EA
:1007C0008161204600F0F4FC0121022001F060FA72
:1007D000002240F20741204600F0EAFC01210220FD
:1007E00001F056FA2046BDE8104000224FF4816126
:1007F00000F0DEBCBC06002010B50E4C002240F21A
:100800000741204600F0D4FC01224FF481612046CC
:1008100000F0CEFC0121022001F03AFA40F207413B
:100820002046012200F0C4FCBDE810400121022056
:1008300001F02EBABC06002010B5044688B101288C
:1008400000D010BDFFF7B2FF7820FFF76DFF00204A
:10085000FFF76AFFA720FFF767FFBDE81040FFF72B
:10086000CBBFFFF7A3FF7820FFF75EFF2046FFF71F
:100870005BFFA620FFF758FFBDE81040FFF7BCBFA5
:1008800010B50446F0B1012800D010BDFFF78EFF6F
:100890007820FFF749FF0020FFF746FFC020FFF751
:1008A00043FFFFF7A9FFFFF781FF7820FFF73CFF29
:1008B0000020FFF739FFA120FFF736FFBDE8104009
:1008C000FFF79ABFFFF772FF7820FFF72DFF204652
:1008D000FFF72AFFC820FFF727FFFFF78DFFFFF77D
:1008E00065FF7820FFF720FF2046FFF71DFFA020BF
:1008F000FFF71AFFBDE81040FFF77EBFF8B5224EA4
:1009000035460836C5F1B007FFF750FF7C1978204F
:10091000FFF70AFFE4B20020FFF706FF2046FFF7CB
:1009200003FFFFF769FFFFF741FF7820FFF7FCFEA9
:100930000020FFF7F9FE0020FFF7F6FEFFF75CFF4F
:10094000FFF734FF7820FFF7EFFE0020FFF7ECFE03
:100950001020FFF7E9FEFFF74FFFFFF727FF782092
:10096000FFF7E2FE4020FFF7DFFE002415F8340019
:100970000134FFF7D9FE802CF8D10135FFF73CFF99
:10098000B542C1D1F8BD00BF3C02002000200A4B97
:10099000A3F1080203F5806143F8080C08338B4289
:1009A000FAD10021054B02F20C4243F8081C08332F
:1009B0009A42FAD1704700BF44020020480200204A
:1009C00000200A4BA3F1080203F5806143F8080CEC
:1009D00008338B42FAD10021054B02F20C4243F856
:1009E000081C08339A42FAD1FFF788BF440200205E
:1009F00048020020012310B50C4C01F0070E04EB57
:100A0000C00C03FA0EF3C9081CF801C0C000DBB229
:100A10002AB143EA0C0C044404F801C010BD2CEACE
:100A2000030C044404F801C010BD00BF3C020020C8
:100A30002DE9F04F203A89B0082B9DF84880D4B2B8
:100A40004FEA530C00F08A8013F0070218BF01220E
:100A500002EBD30212FB0CF212F0FF0A4AD0434A17
:100A6000434F02EB041909EB0A02DFF80CE1039291
:100A7000404A04EB440504EBC40402EB850A07EB8F
:100A8000450B0EEB840EA3F10802059376464B4608
:100A9000D146DA468346CDE906C00492049A102A6C
:100AA00028D8DFE802F05E2727274F2727274A2785
:100AB0002727272727272A00059A0BF10100082A54
:100AC000DDE900312C465FFA80FB03F101030AF1F6
:100AD000010A06F1010609F1010939D0079A0698C1
:100AE000ABEB0205854208BF9346039A08BF214637
:100AF0009342D3D109B0BDE8F08F01F108023578F7
:100B000002922C46CDE900310D469DF808700AE0AE
:100B1000424629465846FFF76DFF691CCDB2BD42DB
:100B20004FEA5404C8D0E307F2D4B8FA88F2294651
:100B300058465209FFF75EFFEFE701F108021D7802
:100B40000292DEE701F1080299F800500292D8E71C
:100B5000039A9342CED09AF80050D2E74FF0060A9B
:100B60007DE701F108020292F5E700BF045300009F
:100B7000685D0000F4580000A84500002DE9F0432E
:100B8000154612789946A2F1200383B05E2B9DF89A
:100B9000287015D804460E464FEA590820464B46A1
:100BA00031460097FFF744FF15F8012FB9F1080F00
:100BB000A2F120000CBF063444445E28E4B2EDD913
:100BC00003B0BDE8F08300BF08B5FFF7EFFD782064
:100BD000FFF7AAFD0020FFF7A7FDAE20FFF7A4FD59
:100BE000FFF70AFEFFF7E2FD7820FFF79DFD0020EA
:100BF000FFF79AFD0020FFF797FDFFF7FDFDFFF7D8
:100C0000D5FD7820FFF790FD0020FFF78DFD102027
:100C1000FFF78AFDFFF7F0FDFFF7C8FD7820FFF72B
:100C200083FD0020FFF780FDB020FFF77DFDFFF77B
:100C3000E3FDFFF7BBFD7820FFF776FD0020FFF70F
:100C400073FD8120FFF770FDFFF7D6FDFFF7AEFDC6
:100C50007820FFF769FD0020FFF766FD5F20FFF7B2
:100C600063FDFFF7C9FDFFF7A1FD7820FFF75CFDED
:100C70000020FFF759FD2020FFF756FDFFF7BCFDD0
:100C8000FFF794FD7820FFF74FFD0020FFF74CFDA4
:100C90000220FFF749FDFFF7AFFDFFF787FD782042
:100CA000FFF742FD0020FFF73FFDA120FFF73CFDCD
:100CB000FFF7A2FDFFF77AFD7820FFF735FD002052
:100CC000FFF732FDC020FFF72FFDFFF795FDFFF77F
:100CD0006DFD7820FFF728FD0020FFF725FDA420FB
:100CE000FFF722FDFFF788FDFFF760FD7820FFF793
:100CF0001BFD0020FFF718FDA620FFF715FDFFF7ED
:100D00007BFDFFF753FD7820FFF70EFD0020FFF776
:100D10000BFDA820FFF708FDFFF76EFDFFF746FD6E
:100D20007820FFF701FD0020FFF7FEFC3F20FFF7D2
:100D3000FBFCFFF761FDFFF739FD7820FFF7F4FCBE
:100D40000020FFF7F1FCD320FFF7EEFCFFF754FD86
:100D5000FFF72CFD7820FFF7E7FC0020FFF7E4FC0D
:100D60000020FFF7E1FCFFF747FDFFF71FFD7820AC
:100D7000FFF7DAFC0020FFF7D7FCD520FFF7D4FC03
:100D8000FFF73AFDFFF712FD7820FFF7CDFC0020BA
:100D9000FFF7CAFC8020FFF7C7FCFFF72DFDFFF728
:100DA00005FD7820FFF7C0FC0020FFF7BDFCD9202F
:100DB000FFF7BAFCFFF720FDFFF7F8FC7820FFF7FC
:100DC000B3FC0020FFF7B0FC2220FFF7ADFCFFF7DB
:100DD00013FDFFF7EBFC7820FFF7A6FC0020FFF7E0
:100DE000A3FCDA20FFF7A0FCFFF706FDFFF7DEFC0F
:100DF0007820FFF799FC0020FFF796FC1020FFF702
:100E000093FCFFF7F9FCFFF7D1FC7820FFF78CFC8F
:100E10000020FFF789FCDB20FFF786FCFFF7ECFCE6
:100E2000FFF7C4FC7820FFF77FFC0020FFF77CFC75
:100E30003020FFF779FCFFF7DFFCFFF7B7FC7820E5
:100E4000FFF772FC0020FFF76FFC8D20FFF76CFCB2
:100E5000FFF7D2FCFFF7AAFC7820FFF765FC002023
:100E6000FFF762FC7220FFF75FFCFFF7C5FC002074
:100E7000114BA3F1080203F5806143F8080C083315
:100E80008B42FAD100210D4B02F20C4243F8081CB0
:100E900008339A42FAD1FFF731FDFFF787FC78203B
:100EA000FFF742FC0020FFF73FFCAF20FFF73CFCC0
:100EB000BDE80840FFF7A0BC440200204802002023
:100EC00008B5FFF71BF9002008BD00BFF0B5846A24
:100ED00085B005460F4694466E46B4B194E80F00BF
:100EE00086E80F00EB6920461B78A760236084F832
:100EF00004C0EB6AE3606B6A9847AC6A1CB196E881
:100F00000F0084E80F0005B0F0BD3446EAE700BFEB
:100F1000EFF30383103B1F4A5BB203F1C00152F8A9
:100F2000210020F4803042F8210052F821201A4A92
:100F300052F82300C3691B6983B1036903B1704789
:100F4000026A0021937803F07F0343F00403937057
:100F5000436AC160C3B18022FFF7B8BF0369026A68
:100F6000002BEED08378C16803F00303022B0CD072
:100F70000B78D3708278D0E9031302F003029B1A36
:100F80001144C0E90313D9E770470B8843F47E434B
:100F9000D381EFE7006000400007002010B582B069
:100FA000EFF30383103B1F4A5BB203F1C00152F819
:100FB000210020F4803042F8210052F821201A4A02
:100FC00052F82340A27802F00303022B236A0CBFDD
:100FD000198A5979A3690CBFC1F30801C9B20191FB
:100FE00043B9636AB3B10422204602B0BDE81040A1
:100FF000FFF76CBF02F0030201A9606901F01CFB5E
:10100000D4E90521A37803F003031A44C91AC4E9FB
:10101000052109B102B010BD636A002BFAD001228C
:10102000E2E700BF006000400007002010B5EFF3CA
:1010300003830E4A103B5CB252F82400026A937894
:1010400003F07B039370436A1BB102220021FFF778
:101050003DFF074A04F1C00352F8231021F4803108
:1010600042F8231052F8233010BD00BF00070020C3
:101070000060004010B5EFF303831A4A103B5CB2E6
:1010800052F82400837803F00303022B036A0CBF99
:10109000198A597993F804C00CBFC1F30801C9B289
:1010A0001CF0100F0CF0380206D093F81CC01CF096
:1010B000010F08BF42F0400293F804C00CF0C70CC7
:1010C00083F804C0436A0BB1FFF700FF064A04F13E
:1010D000C00352F8231021F4803142F8231052F853
:1010E000233010BD000700200060004070B582B0C2
:1010F000EFF30383174A103B5CB252F82450EB68BD
:10110000CBB16A682B6992F90D206E46121B18BF8D
:1011100001225200E3B193E8030086E803001A704D
:101120006A6918465A60EB6898472B691BB196E8C4
:10113000030083E80300084A04F1C00352F82310B7
:1011400021F4803142F8231052F8233002B070BDF0
:101150003346E4E70007002000600040EFF303831C
:101160000120084A103B5BB252F82310064A08726D
:10117000C03352F8231021F4803142F8231052F882
:1011800023307047000700200060004010B40B0AB5
:10119000064C1B0153FA81F154F821300020C3F3AF
:1011A00040035DF8044B1370704700BF000808400F
:1011B0000120CBB2984080B202B900040B0A5B0157
:1011C00003F1804303F5002398600020704700BFBF
:1011D0002DE9F84F0388DBB182464FF0000B4FF04A
:1011E0000109DFF8D0800024304D4FEACB07DAF850
:1011F000043035F8022BD919898891420AD001347C
:10120000032CF4D1BAF800300BF1010B5B45EAD89E
:10121000BDE8F88FDB5909FA04F603F0B853B3F1CF
:10122000807FF6B298F8BB3413D0334231D1204AD4
:1012300004F1200612F81630DB09E0D012F816305F
:10124000012123F08003C82002F8163000F020FDB1
:10125000D5E7334211D0164A04F1200112F81130BB
:10126000DB09CCD112F81130C82043F0800302F81A
:101270001130012100F00CFDC1E7012000F0CCFD90
:1012800098F8BB340120334388F8BB3400F094FD58
:10129000E1E7012000F0C0FD98F8BB34012023EA0B
:1012A000060388F8BB3400F087FDC0E73460000017
:1012B0000030084000E00140F8B50646FFF788FF1F
:1012C000EFF31082012383F31088234F3B681BB98F
:1012D0002249CB704023CB703B6801333B6082F3E3
:1012E0001088338823B300211D4D08E01B011344EF
:1012F00045F82340328801318BB29A4218D973687D
:1013000053F8314003EBC1029288E0034FEA122305
:10131000D2B2EBD502EB031055F820E024F4803C68
:101320002EF4803E45F820E01B0145F820C0DEE7A2
:10133000EFF31082012383F310883B6813B13B68FD
:10134000013B3B603B681BB980200449CB70C870EF
:1013500082F31088F8BD00BFFC060020000D084095
:101360000008084008B5034B03600846FFF7A4FFD8
:10137000002008BD54524F5070B5012686B001AB15
:1013800003A80C4615460493ADF80C60ADF80810A0
:101390000192FFF71DFFEFF3108286F310881D49BD
:1013A0000B681BB940261C48C370C6700B6801331C
:1013B0000B6082F31088EA034FEA1423E4B219D4D5
:1013C0001B01164A234442F82350EFF310820123F5
:1013D00083F310880B6813B10B68013B0B600B683B
:1013E0001BB980200C49CB70C87082F31088002094
:1013F00006B070BD094A04EB031052F820601B01CF
:1014000026F4803642F8206025F4803642F82060C9
:10141000D7E700BFFC060020000D08400008084088
:1014200030B5836B83B004460A466D46A3B193E89A
:10143000030085E80300E16B1A7119601846636BBD
:101440009847A36B1BB195E8030083E803000023D2
:1014500084F82B3003B030BD2B46ECE72DE9F04388
:101460004FF01F085F27DF260569DFF8B49185F884
:10147000008005694FF0000C2F7005694FF0B30E26
:101480002E700568634A6E6A05693679624C46F0CB
:10149000E0062E740568614B6E6A0569F67846F0C1
:1014A000E0066E7405686E6A0569B678360106F066
:1014B000700646F00806AE7005686E6A05693778F2
:1014C000012F777814BF0426052646EA4706F6B2B0
:1014D000EE7005686E6805694E4514BF7726F726DD
:1014E0006E71056985F806C0056985F807E04E7BD1
:1014F00091F9115036015719F6B287F8006344F894
:10150000250005F1C00653F826706CF3104743F828
:10151000267053F82660BFF35F8F4FF0010E6E09FF
:10152000B60005EA080506F1604606F561460EFAC2
:1015300005F5C6F8805135604E7B91F90F503601A4
:101540005719F6B287F8006344F8250005F1C00684
:1015500053F826706CF3104743F8267053F8266052
:10156000BFF35F8F6E09B60005EA080506F1604615
:101570000EFA05F506F56146C6F8805135604E7BDA
:1015800091F9105036015719F6B287F8006344F804
:10159000250005F1C00653F826706CF3104743F898
:1015A000267053F82660BFF35F8F6E09B60005EA18
:1015B000080506F160460EFA05F506F56146C6F81F
:1015C000805135604D7B91F90E102D010A44EDB22A
:1015D00082F8005344F8210001F1C00253F8224080
:1015E0006CF3104443F8224053F82230BFF35F8F6E
:1015F0004B099B0001EA080103F160430EFA01F177
:1016000003F56143C3F8801119609F2203691A70C2
:10161000BDE8F08300E100E000070020006000402A
:1016200040420F0010B582B0EFF30383103B5F4AD6
:101630005BB2C03352F8231021F4803142F82310FA
:1016400052F82330EFF30383594A103B5BB252F850
:10165000234094F82D305BBBA369022B22D9E369A8
:10166000012B0ED12269137943F010031371226903
:10167000137943F0080313712269137923F01003DF
:10168000137123685B6ADB79002B3ED10122236949
:10169000DB7CDBB28DF807309DF8073084F82D2015
:1016A00002B010BD2269137943F040031371D6E7ED
:1016B000E369002BF4D02268526AD279FAB9032B7D
:1016C00017D0022B26D0012B34D02269236AD17C7B
:1016D0006269D154D4E907320132013BC4E90732CF
:1016E000002BDDD121690A7963F386120A7102B0F9
:1016F00010BD2269137943F040031371E5E705211A
:101700002046FFF78DFEE369D9E705212046FFF764
:1017100087FEBBE72269137943F010031371226936
:10172000137943F0080313712269137923F010032E
:101730001371CAE794F82A2072B322681D4892F9FF
:101740000F20510902F01F0203FA02F2203140F883
:101750002120BFF34F8FBFF36F8F04202169CA7917
:1017600042F08002CA7121690A7942F010020A71BE
:1017700021690A7922F008020A7121690A7922F0A6
:1017800010020A712269507021694A7922F001021F
:101790004A7184F82C3098E708212269537A03F0C3
:1017A000F7035372236959708FE700BF0060004050
:1017B0000007002000E100E010B5EFF30383103BC9
:1017C000424A5BB2C03352F8231021F4803142F810
:1017D000231052F82330EFF303833D4A103B5BB2F2
:1017E00052F8234094F82730002B3FD194F8293049
:1017F000002B3AD123685B6ADB792BB194F82B304C
:1018000013B9236A002B5BD1E3692169002B40D116
:10181000CB79C02223F08003CB71216901E0013A2A
:1018200002D0CB79DB09FAD12368284A93F910302A
:10183000C03352F8231021F4803142F8231052F8BB
:101840002330236893F91030002B09DB01215A095A
:10185000204803F01F03603201FA03F340F82230FE
:101860002269D37943F04003D37110BD94F8263038
:10187000032B1CD094F8242023699A7494F8282010
:1018800094F827300132013B84F8282084F827306F
:1018900010BD236A6269D35C8B74D4E907320132CC
:1018A000013BC4E90732002BDFD12169B0E794F88E
:1018B0002830022BDED194F83030002BDAD110BD65
:1018C00005212046FFF7ACFD9EE700BF0060004009
:1018D0000007002000E100E038B5EFF30383334A4E
:1018E000103B5BB252F8234023685B6ADB79002B24
:1018F00048D194F829301BB194F82730012B4FD0F0
:10190000E369DBB12169C023CA7922F04002CA71C0
:10191000216901E0013B02D0CA795206FAD4EFF303
:101920000383103B224A5BB2C03352F8231021F4E8
:10193000803142F8231052F8233038BD94F82A2021
:101940002AB3012022681B4D92F90F20510902F0A1
:101950001F02203100FA02F245F82120BFF34F8F19
:10196000BFF36F8F2169CA7942F08002CA710421E6
:101970002269517021694A7963F300024A7184F83F
:101980002C00BFE705212046FFF74AFDB1E70821FB
:101990002269537A03F0F703537223695970B1E750
:1019A00094F83030002BADD0AAE700BF000700202C
:1019B0000060004000E100E038B5EFF303834C4ADB
:1019C000103B5BB252F823000269537A517ADC066D
:1019D00001F0E00151725FFA83FC03F003022BD5A2
:1019E00003695978490647D40024012580F82B5013
:1019F000DC710168FFF732FDB32290F8263080F8E1
:101A00002C4080F82830C46180F82A40036984693A
:101A100029460462DA71FFF703FDEFF30383103BFD
:101A2000344A5BB2C03352F8231021F4803142F8BB
:101A3000231052F8233038BD002A56D11CF0080F6D
:101A40000ED090F82B30002B3ED1B32290F8291005
:101A50000369C1F10301C9B2DA71FFF7E1FCDCE708
:101A600090F82C200CF004032AB3002BD5D090F86A
:101A70002B30002B37D1E8E7002AB5D15A78C2F3D2
:101A800080115206DAD5082280F82B105A700368AC
:101A900001695A6A94791378527943EAC41343EA84
:101AA000021343F00203DBB2CB700269537943F0B7
:101AB00001035371B1E7002BAFD003685B6ADB7998
:101AC000002BAAD00421C8E70023B32190F82650A8
:101AD0008469026980F82C3080F828500462C36160
:101AE00080F82A30D1710121B7E703697CE700BF94
:101AF0000007002000600040064B074993F82600CD
:101B00001A6A51F82030C2F302620449D3400B60D4
:101B1000704700BF00E00140DC01002038070020D2
:101B2000704700BFF8B54AF2035001233F49404ACD
:101B3000A1F8FE03A2F80431B2F804319BB2002BE5
:101B4000FAD14FF0010C4FF4004120250920394C07
:101B5000394F3A4E67603A4F344BE760A2F800C104
:101B6000384A2660A1602161626193F82620196AD3
:101B700054F82220344EC1F30261CA40326083F827
:101B8000135483F8A20093F880241AB993F881348F
:101B9000990746D0254D95F88034002B36D0002289
:101BA000224B83F8812483F8802400231F4981F885
:101BB000323091F83C301A07FBD543F60130002350
:101BC0001A4A088581F82A3092F83C309B06FBD5EA
:101BD000012005231649F12581F81C011B491162DA
:101BE00082F8263092F82630106A54F82310C0F399
:101BF0000260C14031600024F0204FF42541144BB5
:101C00001D731C721873A2F8FE13F8BD0121C820C1
:101C100085F8801400F03CF895F88034012BFBD156
:101C2000BDE74FF47A70FFF77BFFBEE700E00140AD
:101C300000C00140DC01002000127A00002D3101BB
:101C4000001BB7000095BA0A3807002021120221B4
:101C50000020004010B50024064B012083F82840E6
:101C600000F0DAF8044B012083F8BB44BDE81040D3
:101C700000F0A2B80030084000E00140704700BF0B
:101C800000BEFEE7A0F101000028FBD1704700BFB5
:101C90004FF47A7310B400FB01F1114C114A24681F
:101CA000B2FBF4F2A1FB03043CB9B0FBF2F08008F4
:101CB00060B15DF8044BFFF7E5BF9200B1FBF2F1B4
:101CC000A1FB03132BB908460028F2D15DF8044BA1
:101CD00070474FF0FF3C5DF8044B6046FFF7D2BF02
:101CE0003807002000CA9A3B70B500240B4B0C4EFD
:101CF000B3F82021B3F84051ADB2154025FA04F3F2
:101D0000DB0704D556F82430E0B203B1984701341C
:101D10000E2CF3D1014BA3F8305170BD0060004090
:101D2000C406002030B5032085B000F075F800250A
:101D30006FF0FF014FF0FF301B4B1C4C99642246A3
:101D40002B464FF0010ECDE90100039032F8021B43
:101D50000EFA03FC013311B1012520EA0C000B2B14
:101D6000F4D1F5B10190124B0F4A1067C3F880020D
:101D7000029903205167C3F8841203999167C3F84D
:101D8000881200F019F800230A4834F8022B03F1F6
:101D9000C00101330AB140F821200B2BF5D105B069
:101DA00030BD4FF0FF30DEE7008000401C600000D7
:101DB00000E100E000600040EFF31081012383F3B5
:101DC0001088124B33F8102092B22AB133F8102049
:101DD000013A92B223F8102033F810309BB293B935
:101DE00010B40B4A0B4CB2F8FE3334F810009BB21F
:101DF00043F4254323EA0003A2F8FE3381F310885D
:101E00005DF8044B704781F3108870472C07002061
:101E100000E001403C60000030B4EFF3108101238A
:101E200083F310880E4A32F810309BB26BB90D4C18
:101E30000D4DB4F8FE3335F810C09BB243EA0C03E5
:101E400043F425439BB2A4F8FE3332F8103001333B
:101E50009BB222F8103081F3108830BC704700BF6D
:101E60002C07002000E001403C60000008B50C4A4F
:101E70000346106840B103330A4923F003030344C7
:101E80008B4205D8136008BD074908461160F2E788
:101E900000F0CAFB0C2203461A604FF0FF3008BD69
:101EA00034070020882800208808002000BE7047E2
:101EB00008B500F003F8FFF703F8FEE74FF47002EF
:101EC00070B52B4B2B4CC3F8882000209C60FEF78C
:101ED0001FFCFFF727FE0120FEF71AFC2368A3F57D
:101EE000806383F30A882448244A0021121A00F0F0
:101EF0008FFB2348234A2449121A00F09DFB234DEF
:101F0000234B5B1B002B07DD00249E1055F8043B80
:101F100001349847A642F9DCFFF7EEFDFFF79AFE81
:101F20000320FFF779FF4FF6FF720024194B0320BF
:101F30001A825A829A82DA821A835A839A83DA83BD
:101F4000FFF73AFF0320FFF767FF134B03205C60A6
:101F50009C60DC601C61FFF72FFF0220FEF7D8FBBE
:101F6000FFF7E0FE2046BDE87040FFF787BE00BFE8
:101F700000ED00E000000000F801002084080020CF
:101F800000000020DC01002078630000D401002064
:101F9000D8010020000D084000000E402DE9FF4749
:101FA00057EC106B002F0C4619463B46B4BF07F1A7
:101FB000004300239146BFBF32461F462D231646DD
:101FC000DDF830A00B700D9B23F02008B8F1460F10
:101FD00005D0B8F1450F00D10134022100E0032102
:101FE00003AB2246019302AB47EC106B00935346C0
:101FF00000F0C6FBB8F1470F054619D119F0010FE3
:102000000ED000EB0409002200233046394602F0CE
:1020100015FA08B1CDF80C903022039B4B451ED326
:10202000039B28460E9A5B1B136004B0BDE8F08743
:10203000B8F1460F00EB0409E5D10378302B0AD143
:10204000002200233046394602F0F8F918B9C4F1ED
:102050000104CAF80040DAF800309944D3E7591C6B
:1020600003911A70D9E7F7B500290270BABF494247
:102070002D232B230929437028DD0DF107030A279F
:102080001D461A46013BB1FBF7F607FB1614303428
:1020900002F8014C0C463146632CF2DC3031941EC0
:1020A00003F8011C411C2346AB420AD30DF109037E
:1020B0009B1AAC4288BF002302330344181A03B0B2
:1020C000F0BD13F8016B01F8016FEDE730233031FB
:1020D0008370031DC170F1E72DE9F04F8DB00C4600
:1020E00016461F46DDF85880054600F099FA036849
:1020F0001846049300F0ADFA002305900A93D8F82F
:10210000003094F818A00733D4F800B023F0070388
:1021100003F10802C8F800204FF0FF32D3E900892C
:1021200029F00043CDF8188007939D4BDDE90601A7
:10213000C4E9128902F0B4F970BB4FF0FF32984B3A
:10214000DDE9060102F08EF930BB00220023404693
:10215000494602F07DF910B12D2384F84330914AAD
:10216000914BBAF1470F8CBF9046984603234FF02E
:10217000000923612BF00403236033460BAA214698
:102180002846009700F0D2F9013040F08D804FF0E2
:10219000FF300DB0BDE8F08F42464B464046494601
:1021A00002F07EF940B14B46804A002BBCBF2D2384
:1021B00084F843307E4BD4E70AF0DF02636806926E
:1021C0005A1C3BD1062363604BF4806200232846EF
:1021D000226003930AABCDE901A309AB49EC108B54
:1021E00000930DF123036168FFF7D8FE069B80463C
:1021F0000999472B29D1C81C02DB6368994241DD4C
:10220000AAF1020A5FFA8AFA0139524604F1500033
:102210000991FFF728FF0A9A81461318012A2361C2
:1022200002DC2268D20701D5013323619DF82330F7
:10223000002BA2D02D2384F843309EE7069A472A2C
:10224000C2D1002BC0D10123BDE7BAF1650FDBD9A4
:10225000BAF1660F18D1002963680BDD216113B94B
:102260002268D00702D501330B4423614FF00009E7
:10227000A165DBE713B92268D20701D50233F4E781
:102280000123F2E74FF0670A0A9B994205DB2368B6
:102290002161D807EAD54B1CE7E70029D4BFC1F17B
:1022A000020201221344E0E723685A0507D4236998
:1022B000424631462846B84701302BD167E7BAF18C
:1022C000650F40F2DD8000220023D4E9120102F004
:1022D000B5F8002833D00123364A31462846B8479E
:1022E00001303FF454AFDDE90938434502DB236890
:1022F000D8070FD531462846DDE90423B847013019
:102300003FF445AF4FF0000908F1FF3804F11A0A15
:10231000C84509DC23689B0700F10381E0680B9B3B
:102320009842B8BF184634E7012352463146284642
:10233000B84701303FF42BAF09F10109E8E7099BE9
:10234000002B39DC01231B4A31462846B8470130AF
:102350003FF41DAFDDE9093959EA030302D12368CF
:10236000D907D7D531462846DDE90423B8470130DF
:102370003FF40DAF4FF0000A04F11A0B099B5B42CA
:10238000534501DC4B4693E701235A463146284624
:10239000B84701303FF4FBAE0AF1010AEEE700BF97
:1023A000FFFFEF7F486000004460000050600000C5
:1023B0004C60000054600000A36DDDF828A0534578
:1023C000A8BF5346002B994636DC4FF0000B29EA94
:1023D000E97904F11A02A36D0693A3EB09035B45A7
:1023E00031DC099B9A453ADC2368DA0737D4099B2C
:1023F000AAEB0309069BAAEB03039945A8BF9946DC
:10240000B9F1000F33DC4FF0000829EAE97904F153
:102410001A0B099BAAEB0303A3EB090343457FF7C0
:1024200079AF01235A4631462846B84701303FF478
:10243000AEAE08F10108ECE7424631462846B847FF
:102440000130C2D1A3E60123314628460692B8479F
:1024500001303FF49CAE0BF1010B069ABBE7DDE9BE
:10246000042331462846B8470130C0D18FE6069A8A
:102470004B46314628464244B8470130C3D186E630
:10248000DDF828A0BAF1010F01DCDB0736D5012306
:10249000424631462846B84701303FF478AE3146CF
:1024A0002846DDE90423B84701303FF470AE00222E
:1024B00000230AF1FF3AD4E9120101F0BFFFC0B9CD
:1024C000534608F1010231462846B84701300CD185
:1024D0005DE601235A4631462846B84701303FF4AD
:1024E00056AE08F10108D045F3DB4B4604F150022B
:1024F000DFE64FF0000804F11A0BF4E7012342462F
:10250000E1E701234A4631462846B84701303FF407
:102510003EAE08F10108E3680B995B1A4345F0DC15
:10252000FCE64FF0000804F11909F4E72DE9F04743
:10253000164698468A6807460B690C46DDF82090D7
:102540009342B8BF1346336091F843200AB1013378
:1025500033602368990642BF3368023333602568CD
:1025600015F0060506D104F1190AE36832689B1AD2
:10257000AB422BDC94F843302268003B18BF0123A8
:10258000920630D404F1430241463846C847013030
:1025900023D023681A3454F80A2C03F00603042BC2
:1025A0000ABF54F80E5C002533684FF0000608BFE0
:1025B000ED1A54F8123C08BF25EAE5759342C4BFF2
:1025C0009B1AED18B5421AD1002008E001235246AB
:1025D00041463846C847013003D14FF0FF30BDE8CF
:1025E000F0870135C1E7E1185A1C3020023322443C
:1025F00081F8430094F8451082F84310C2E70123A4
:10260000224641463846C8470130E6D00136D9E770
:1026100002440346934200D1704703F8011BF9E7D7
:102620000048704758010020014B1868704700BFF0
:1026300018000020704770470A44431E914200D1A1
:10264000704710B511F8014B914203F8014FF9D1D1
:1026500010BD034613F8012B002AFBD1181A0138CC
:1026600070472DE9F74F036907460C69A342C0F292
:102670008380013C00F1140501F11408A30055F812
:10268000242008EB8409009305EB8403019358F898
:10269000243001339A42B2FBF3F631D34FF0000AF3
:1026A000C446AE46D3465CF8043B98B2E1454FEAD7
:1026B000134306FB00A04FEA104280B206FB03233F
:1026C000DEF8002092B24FEA134AA2EB00029BB25E
:1026D000DEF800005A44C3EB224392B203EB1043EE
:1026E00042EA03424FEA234B4EF8042BDBD2009B15
:1026F000EB582BB9019B043B9D421A4630D33C61F9
:10270000384601F027F9002826DB2946002058F832
:10271000042BD1F800C01FFA82FEC1451FFA8CF3CA
:102720004FEA1242A3EB0E030344C2EB23429BB2D7
:1027300002EB1C4243EA02434FEA224041F8043BC9
:10274000E5D255F8242005EB840322B9043B9D42D1
:102750001A460BD33C610136304603B0BDE8F08F1A
:102760001268043B002ACAD1013CC5E71268043B49
:10277000002AEFD1013CEAE70020EEE7FFFFFFFF70
:102780002DE9F04FC76999B08346229E09910E92B8
:10279000139355EC104B8DED040B7FB9102000F016
:1027A000ADFD0246CBF81C0020B9A74BEF21A7488E
:1027B000FFF766FAC0E901770760C760DBF81C30F5
:1027C000196859B15A680123584693404A608B6092
:1027D00000F08AFEDBF81C3000221A602B1EB7BF07
:1027E00023F00043002301220593A8BF3360059F17
:1027F000974BB8BF3260BB4312D142F20F73139AAA
:102800001360C7F31303234300F04685239BDFF8CF
:1028100054A2002B00F048850AF1030300F042BDEA
:102820009DED047B0022002351EC170B8DED0C7BFA
:1028300001F004FE804658B10123139A1360239BD4
:1028400013B1844B239A1360DFF81CA200F02CBD57
:10285000C7F30A5616AA17A958469DED0C0B01F0AE
:102860002DF98146002E75D00D9BA6F2FF36CDF8CE
:102870005080C3F3130343F07F53DDE90C0143F4AD
:10288000401319460022744B01F0B8F968A3D3E94C
:10289000002301F06BFB68A3D3E9002301F0B0F93A
:1028A00004460D46304601F0F7FA65A3D3E900234C
:1028B00001F05CFB02460B462046294601F0A0F9D8
:1028C00004460D4601F002FE002207460023204682
:1028D000294601F0BDFD40B1384601F0DDFA22463F
:1028E0002B4601F0ABFD00B9013F162F51D85B4BD1
:1028F00003EBC703DDE90C01D3E9002301F0A8FDD8
:10290000002848D0013F00231293169B9B1B5A1EA0
:1029100046BFC3F1010800234FF00008089248BFEA
:102920000893002F39DB089B0F973B440893002343
:102930000A93099B092B61D8052BC5BF043B0024D2
:1029400001240993099B023B032B63D8DFE803F0C2
:102950005254372CDDE916631E4406F23243202B15
:10296000C9BFC3F14003C3F120039F4006F21243E5
:10297000D8BF04FA03F006F1FF36C4BF24FA03F30C
:1029800047EA030001F078FA0122A1F1F8731492EA
:1029900077E70123B8E71290B7E77B42A8EB070877
:1029A0000A9300230F93C4E701230B930E9BFB189C
:1029B00000930133012B0393B8BF012306E00123E9
:1029C0000B930E9B002B28DD00930393DBF81C0078
:1029D0000021042202F114059D4223D9416058468A
:1029E00000F042FD8246002840D11D4B024640F2D5
:1029F000AF11DCE60023E3E70023D6E70124002340
:102A00000B9409934FF0FF3300220093039312239A
:102A10000E92DBE701230B93F4E701231A460093A0
:102A20000393F5E701315200D4E700BFAFF3008014
:102A300061436F63A787D23FB3C8608B288AC63FC4
:102A4000FB799F501344D33F636000007A6000001D
:102A50000000F07F556000000000F83F806100003A
:102A6000D36000005F60000054600000DBF81C30A1
:102A70001860039B0E2B00F2A180002C00F09E80BA
:102A8000002F33DD07F00F029B4BF8054FEA2714A8
:102A900003EBC20393ED007B8DED067B16D5974BC0
:102AA00004F00F040326D3E90823DDE90C0101F04B
:102AB00087FBCDE90401914D54B9DDE90623DDE939
:102AC000040101F07DFBCDE9040128E00226F2E7D4
:102AD000E10708D50136DDE90601D5E9002301F05B
:102AE00045FACDE9060164100835E5E700F0AF804E
:102AF0007C42814B814D022604F00F02241103EB2E
:102B0000C203DDE90C01D3E9002301F02FFA002311
:102B1000CDE90401002C40F08F80002BD3D1129B13
:102B2000DDE90445002B00F094800022744B204620
:102B3000294601F08DFC002800F08B80039B002BC0
:102B400000F08780009B002B34DD7B1E2046002296
:102B50002946069301366B4B01F008FA009CCDE93B
:102B60000401304601F098F9DDE9042301F0FEF993
:102B70000022654B01F044F80546A1F15076002C87
:102B80006AD10022614BDDE9040101F037F8024609
:102B90000B46CDE904232A46334601F077FC002892
:102BA00040F087822A4606F10043DDE9040101F086
:102BB0004FFC38BBDDE90C34CDE90434179B002B06
:102BC000C0F258810E2F00F355814B4B03EBC70326
:102BD00093ED007B0E9B002B8DED007B80F2E5805A
:102BE000039B002B00F3E1800CD10022474B51ECFA
:102BF000170B01F0BBF9DDE9042301F03DFC0028CF
:102C000000F05582002425460E9B5646DB43069372
:102C100000272146584600F067FC002D00F0BD80DB
:102C20002FB1AF4203D03946584600F05DFC29462B
:102C3000584600F059FCB0E0E20705D50136D5E969
:102C4000002301F093F901236410083562E702269E
:102C500065E7039C069784E7274B0B9903EBC403B6
:102C6000544453E90223002954D00020284901F09C
:102C7000A7FA334656462A4600F0C0FFCDE91001B8
:102C8000DDE9040101F022FC054601F005F90246E8
:102C90000B463035DDE9040100F0B0FF02460B467B
:102CA00006F8015BCDE90423DDE9102301F0D0FB38
:102CB000002872D100201249DDE9042300F09EFFB4
:102CC000DDE9102301F0C4FB002840F0B480A642E7
:102CD0003FF470AF00220B4BDDE9100101F046F923
:102CE0000022084BCDE91001DDE9040101F03EF9B5
:102CF000CDE90401C4E700BF806100005861000015
:102D00000000F03F0000244000001C400000144080
:102D10000000E03F31465646284601F027F9159459
:102D2000CDE91001DDE9040101F0D0FB054601F019
:102D3000B3F8024630350B46DDE9040100F05EFFD2
:102D400006F8015B02460B46A642CDE904234FF08C
:102D5000000224D1AB4BDDE9100100F051FF024627
:102D60000B46DDE9040101F091FB002863D100204E
:102D7000A449DDE9102300F041FF02460B46DDE9DE
:102D8000040101F065FB00283FF414AF159E731E8B
:102D9000159316F8013C302BF8D0069F3BE09A4B78
:102DA00001F0E4F8CDE90401BCE7DDE9044556464D
:102DB00020462946DDE9002301F002FA01F086FBF6
:102DC000804601F069F8DDE9002301F0CFF8024602
:102DD000204608F130040B46294600F00FFF039D02
:102DE00006F8014BA6EB0A0402460B46A54234D175
:102DF00000F006FF04460D46DDE9002301F046FB26
:102E0000C0B920462946DDE9002301F017FB10B1C7
:102E100018F0010F0ED14946584600F065FB00231B
:102E200001373370139B1F60239B002B00F03C8203
:102E30001E6039E2069733461E4613F8012D392AE3
:102E400007D19A45F8D1069A0132069230228AF8C3
:102E500000201A7801321A709FE700226A4B01F0B5
:102E600085F80022002304460D4601F0E7FA002809
:102E70009ED0D0E70B9A002A00F0E180099A012A3F
:102E800000F3C480149A002A00F0B78003F23343A1
:102E90000A9C4646089A0121584698441A440892CA
:102EA00000F0D8FB05465EB1089B002B08DDB3425D
:102EB000089AA8BF3346A8EB0308F61AD31A08935A
:102EC0000A9BF3B10B9B002B00F0BD808CB129460F
:102ED0002246584600F078FC4A46014605465846C8
:102EE00000F0CEFB49460690584600F0FDFA069BDE
:102EF00099460A9B1A1B04D04946584600F064FCC8
:102F000081460121584600F0A5FB0F9B0446002B8B
:102F100000F0CE811A460146584600F055FC099B48
:102F20000446012B00F39580049B002B40F08D801C
:102F3000059BC3F31303002B40F08980059B23F00E
:102F400000431B0D1B052BB1089B08F10108013341
:102F5000089301230A930F9B002B00F0AF81236994
:102F600004EB8303186900F029FBC0F12000089BE3
:102F7000184410F01F0077D0C0F12003042B6BDD44
:102F8000C0F11C00089B8044034406440893B8F138
:102F9000000F05DD49464246584600F06FFC814669
:102FA000089B002B05DD21461A46584600F066FCBA
:102FB0000446129B002B59D02146484600F0CAFC1B
:102FC000002853DA7B1E49460A22584606930023FE
:102FD00000F0ACFA0B9B8146002B00F071810023BE
:102FE00029460A22584600F0A1FA009B0546002B0C
:102FF00067DC099B022B41DC63E0169BC3F13603BF
:1030000046E700BF0000E03F00002440039B5C1E39
:103010000A9BA34209DB1C1B039B002BBFF639AFA5
:10302000039BA8EB0306002334E70A9B46460F9A4E
:10303000E31A0A9400241A44039B0F922AE70A9C7D
:1030400046460B9D2FE70A9A56E7002382E7049B2A
:1030500080E700230A9382E799D01C33089A1A4428
:1030600098441E44089292E70346F6E7039B0697AE
:10307000002B20DC0093099B022B1EDD009B002B04
:103080007FF4C2AD21460522584600F04FFA0146B2
:103090000446484600F05EFC00287FF7B5AD3123BA
:1030A000564606F8013B069B01330693B0E5039CA8
:1030B00006972546F3E7039B00930B9B002B00F03C
:1030C0000381002E05DD29463246584600F0D6FB26
:1030D00005460A9B002B5AD06968584600F0C4F98F
:1030E000064628B9834B024640F2EF21FFF75FBB4B
:1030F0002A6905F10C010C3002329200FFF79CFAAC
:1031000001223146584600F0B9FB0AF101032F466F
:1031100005460393009B53440B93049B03F0010368
:103120000A93039B21464846013B0093FFF799FA17
:103130003946049000F13008484600F00BFC2A465E
:1031400008902146584600F021FCC268064602BBA2
:103150000146484600F0FEFB0246314658460E92B4
:1031600000F0C2F9099B0E9A039E42EA03010A9BF2
:10317000194310D1B8F1390F29D0089B002B02DD7B
:10318000049B03F13108009B83F8008041E5284649
:10319000BBE70122E1E7089B002B04DB09990B4305
:1031A0000A990B4320D1002AEDDD494601225846F9
:1031B00000F064FB2146814600F0CCFB002803DCD4
:1031C000E1D118F0010FDED0B8F1390FD8D1392391
:1031D000009A137033461E46013B16F8012C392A1B
:1031E00051D001321A7014E5002A07DDB8F1390F09
:1031F000EDD008F10103009A13700AE5039B0B9AC6
:1032000003F8018C934228D0494600230A225846ED
:1032100000F08CF9AF4281464FF000034FF00A02F4
:103220003946584607D100F081F907460546039B09
:103230000133039375E700F079F929460746002327
:103240000A22584600F072F90546F0E7009B002775
:10325000002BCCBF1E460126564449460122584643
:1032600000F00CFB2146814600F074FB0028B1DC25
:1032700002D118F0010FADD133461E4613F8012DCF
:10328000302AFAD0C5E49A45A5D1069B01330693AE
:1032900031238AF80030BCE4239BDFF85CA01BB12B
:1032A0000AF10803239A1360504619B0BDE8F08F65
:1032B000099B012B7FF738AE0F9B0A93012056E63E
:1032C000009B002B7FF7D7AE564621464846FFF7B6
:1032D000C8F900F13008009B06F8018BA6EB0A0242
:1032E0009342B3DD494600230A22584600F01EF9F6
:1032F0008146EAE7D360000056600000024B0146B9
:10330000186800F025B800BF1800002070B50F4EF7
:103310000C460546316811B900F028FC30602146A2
:10332000284600F023FC431C03D14FF0FF34204615
:1033300070BDC41C24F00304A042F8D0211A284612
:1033400000F014FC0130F2D1EFE700BF7C08002050
:103350002DE9F843CD1C064625F0030508350C2D54
:1033600038BF0C25002D01DBA94204D90C233360A2
:103370000020BDE8F883DFF8D48000F069F8D8F8C1
:1033800000301C4644BB29463046FFF7BFFF431CB4
:10339000044658D1D8F800402746002F43D1002CCE
:1033A0004BD023683946304604EB030900F0DEFBBE
:1033B000814542D1216830466D1A2946FFF7A6FFA4
:1033C00001303AD023682B442360D8F800305A6883
:1033D00062BBC8F800700FE02268521B20D40B2A91
:1033E00017D96119A342256018BF5960636808BFE7
:1033F000C8F8001062514B60304600F02FF804F11D
:103400000B00231D20F00700C21A1CBF1B1AA3507B
:10341000AFE76268A3420CBFC8F800205A60EBE730
:1034200023466468AEE73C467F68B6E71A465B68A9
:10343000A342FBD100235360DEE70C233046336008
:1034400000F00CF894E70560D6E700BF8008002084
:103450000148FFF7EFB800BF780800200148FFF7E8
:10346000EAB800BF7808002070B5C66904460D466A
:1034700076B91020FFF742FF0246E06120B9184BF1
:103480006B211848FEF7FCFBC0E901660660C660C8
:10349000E669F36883B1E369DB6853F82500B8B9DE
:1034A0000121204601FA05F6721D920000F06EFB24
:1034B00060B1C0E901560EE021220421204600F04F
:1034C00065FBE369F060DB68002BE4D1002070BD90
:1034D000026843F825200023C0E90333F7E700BF63
:1034E00063600000E460000070B5C66905460C46E4
:1034F00076B91020FFF702FF0246E86120B9094BB8
:103500008F210948FEF7BCFBC0E901660660C66072
:103510003CB1EB696268DB6853F82210216043F824
:10352000224070BD63600000E46000002DE9F041BE
:1035300001F1140C07460C461E460D690020DCF80C
:103540000030013099B2854202FB01614FEA134617
:103550004FEA114389B202FB063301EB03414FEA04
:1035600013464CF8041BEADC0EB3A368AB4219DC2B
:10357000616838460131FFF777FF804628B9024677
:103580000C4BBA210C48FEF77BFB226904F10C01BD
:103590000C3002329200FFF74FF82146444638467D
:1035A000FFF7A2FF04EB850301355E61256120462C
:1035B000BDE8F081D3600000E4600000B0F5803F1A
:1035C000034636BF030400201020B3F1807F3CBFC8
:1035D0001B020830B3F1805F3CBF1B010430B3F124
:1035E000804F3CBF9B000230002B05DB13F0804F67
:1035F00000F1010008BF202070470368024613F065
:1036000007000BD0D90721D4980747BF5B080120DA
:103610009B0802204CBF13601360704799B209B930
:103620001B0C1020D9B209B908301B0A190704BFB6
:103630001B090430990704BF9B080230D90703D443
:103640005B0800F1010003D0136070470020704751
:103650002020704710B50C460121FFF705FF0246F8
:1036600028B9054B40F245110448FEF709FB012338
:103670004461036110BD00BFD3600000E46000003E
:103680002DE9F04F17460A69894685B03B699A4291
:10369000A2BF3B460F4699463D69BB68D9F810A0CA
:1036A000796805EB0A06B342B8BF0131FFF7DCFECB
:1036B00030B90246424B4FF4B1714248FEF7E0FA8E
:1036C00000F11404002204EB860E2346734520D338
:1036D00007F1140809F1140108EB850501EB8A03D1
:1036E0000293EB1B1537153B23F003030433BD4254
:1036F00038BF04230193029B03918B420CD8002E08
:1037000003DD5EF8043D002B57D0066105B0BDE82F
:10371000F08F43F8042BD9E7B1F800A0BAF1000FFD
:1037200021D0C446A14600275CF8042BD9F800300C
:103730001FFA82FB65459BB24FEA12420AFB0B332C
:103740003B44D9F800704FEA17470AFB027202EBBC
:1037500013429BB24FEA124743EA024349F8043B43
:10376000E2D8019BE750039B0431B3F80290B9F112
:10377000000F20D023684746A4464FF0000AB7F850
:1037800000B09BB2BCF8022009FB0B22524443EA72
:1037900002434CF8043B57F8043B4FEA134ABCF889
:1037A0000030BD4209FB0A3303EB12434FEA134AD0
:1037B000E5D8019AA35004349DE7013E9FE700BF7E
:1037C000D3600000E46000002DE9F843154612F0D4
:1037D000030207460E4607D0013A254C002354F851
:1037E0002220FFF7A3FE0646AD103DD0FC697CB950
:1037F0001020FFF783FD0246F86128B91D4B40F207
:10380000B3111D48FEF73CFAC0E901440460C460EE
:10381000D7F81C80D8F808404CB940F271213846DE
:10382000FFF718FF00230446C8F8080003604FF0B4
:103830000009EB070AD5314622463846FFF720FF3C
:103840008046314638464646FFF74EFE6D100BD097
:10385000206838B9224621463846FFF711FF20601C
:10386000C0F800900446E4E73046BDE8F88300BFA6
:103870004861000063600000E46000002DE9F0474B
:103880000C46074691464FEA621A2369496803EBE2
:103890006218A36808F10106B3420BDB3846FFF754
:1038A000E3FD054648B90246284B4FF4EF7128481E
:1038B000FEF7E6F901315B00EEE7002300F11401A9
:1038C00000F110021846534533DB2AEAEA7A04F184
:1038D0001403206919F01F0901EB8A0103EB800C26
:1038E0002BD0C9F1200E8A460022186800FA09F090
:1038F00010434AF8040B53F8042B9C4522FA0EF2AD
:10390000F3D8ACEB040304F11500153B23F00303DB
:103910000433604588BF0423CA500AB108F1020687
:10392000013E384621462E61FFF7DEFD2846BDE800
:10393000F087013342F8040FC5E7043953F8042B2C
:103940009C4541F8042FF9D8EAE700BFD360000096
:10395000E460000003460A690069801A30B50ED1A0
:103960001433143103EB820401EB820154F8045D3B
:1039700051F8042D954203D005D24FF0FF3030BDF1
:10398000A342F3D3FBE70120F9E7FFFF2DE9F74F4F
:1039900089460646114614464846FFF7DBFF051EDA
:1039A00012D129463046FFF75FFD024628B9414B48
:1039B00040F237214048FEF763F90123C0E904359E
:1039C000104603B0BDE8F08FBCBF4B46A146304661
:1039D000B8BF0125D9F80410B4BF1C460025FFF775
:1039E00043FD024618B9334B40F24521E2E7D9F8CE
:1039F000107004F1140E266900F1140BC56009F172
:103A0000140509F110030EEB860605EB8708D9466D
:103A10004FF0000C0193019B5EF8040B53F804AFC8
:103A2000764501931FFA8AF3194683B24FEA104094
:103A3000A1EB0303C0EB1A40634400EB23409BB2AD
:103A40004FEA204C43EA004349F8043BE3D8331BD8
:103A50001534153B23F003030433A64238BF042377
:103A60001D445B442C461E4644450ED308F1030119
:103A7000491B033D21F00301A84538BF00210B4439
:103A800053F8041D99B117619AE754F8041BE646F0
:103A90001FFA81FC080C7144F44489B200EB2C40FD
:103AA00041EA00414FEA204C46F8041BDCE7013FA5
:103AB000E6E700BFD3600000E46000002DE9F743B3
:103AC0000F460121164659EC108BFFF7CDFC04463A
:103AD00030B90246234B40F20F312348FEF7D0F8AD
:103AE000C9F30A55C9F313030DB143F480130193CD
:103AF000B8F1000323D068460093FFF77EFDDDE9AF
:103B00000012D0B1C0F1200302FA03F3C2400B430C
:103B100001926361019B002BA3610CBF0122022271
:103B20002261A5B1A5F233450544C0F135003D60E1
:103B30003060204603B0BDE8F0836161EAE701A888
:103B4000FFF75BFD019B203001226361E8E7A0F2F3
:103B5000324004EB820338601869FFF72FFDC0EB99
:103B60004210E5E7D3600000E460000038B50023B0
:103B7000054D044608462B60FEF778F9431C02D138
:103B80002B6803B1236038BD7408002070B5A1FB19
:103B9000025434B92946FFF7DBFB064628B9304604
:103BA00070BD0C2200260260F9E72A462146FEF786
:103BB0002FFDF4E782B001B901A942B14BB11378EE
:103BC0000B601278101E18BF012002B0704710461B
:103BD000FBE76FF00100F8E70346084641B1FF2A12
:103BE00004D98A224FF0FF301A60704701200A7012
:103BF0007047FFFF81F0004102E000BF83F0004307
:103C000030B54FEA41044FEA430594EA050F08BF77
:103C100090EA020F1FBF54EA000C55EA020C7FEA3B
:103C2000645C7FEA655C00F0E2804FEA5454D4EBB8
:103C30005555B8BF6D420CDD2C4480EA020281EA82
:103C4000030382EA000083EA010180EA020281EABA
:103C50000303362D88BF30BD11F0004F4FEA01310C
:103C60004FF4801C4CEA113102D0404261EB41011B
:103C700013F0004F4FEA03334CEA133302D05242A1
:103C800063EB430394EA050F00F0A780A4F101045D
:103C9000D5F1200E0DDB02FA0EFC22FA05F2801897
:103CA00041F1000103FA0EF2801843FA05F359417D
:103CB0000EE0A5F120050EF1200E012A03FA0EFCFC
:103CC00028BF4CF0020C43FA05F3C01851EBE37126
:103CD00001F0004507D54FF0000EDCF1000C7EEB43
:103CE00000006EEB0101B1F5801F1BD3B1F5001F81
:103CF0000CD349085FEA30004FEA3C0C04F10104A0
:103D00004FEA445212F5800F80F09A80BCF1004FC8
:103D100008BF5FEA500C50F1000041EB045141EA4A
:103D2000050130BD5FEA4C0C404141EB0101013C13
:103D300028BFB1F5801FE9D291F0000F04BF014602
:103D40000020B1FA81F308BF2033A3F10B03B3F1D4
:103D500020020CDA0C3208DD02F1140CC2F10C0264
:103D600001FA0CF021FA02F10CE002F11402D8BFC2
:103D7000C2F1200C01FA02F120FA0CFCDCBF41EA8E
:103D80000C019040E41AA2BF01EB0451294330BD5D
:103D90006FEA04041F3C1CDA0C340EDC04F114043A
:103DA000C4F1200220FA04F001FA02F340EA030011
:103DB00021FA04F345EA030130BDC4F10C04C4F157
:103DC000200220FA02F001FA04F340EA0300294637
:103DD00030BD21FA04F0294630BD94F0000F83F481
:103DE000801306BF81F480110134013D4EE77FEA64
:103DF000645C18BF7FEA655C29D094EA050F08BFB0
:103E000090EA020F05D054EA000C04BF1946104690
:103E100030BD91EA030F1EBF0021002030BD5FEAD4
:103E2000545C05D14000494128BF41F0004130BDFC
:103E300014F580043CBF01F5801130BD01F0004550
:103E400045F0FE4141F470014FF0000030BD7FEAC3
:103E5000645C1ABF194610467FEA655C1CBF0B46BE
:103E6000024650EA013406BF52EA033591EA030FD5
:103E700041F4002130BD00BF90F0000F04BF0021CD
:103E8000704730B54FF4806404F132044FF0000500
:103E90004FF0000150E700BF90F0000F04BF002179
:103EA000704730B54FF4806404F1320410F00045DF
:103EB00048BF40424FF000013EE700BF42004FEADA
:103EC000E2014FEA31014FEA02701FBF12F07F4357
:103ED00093F07F4F81F06051704732F07F4208BF0E
:103EE000704793F07F4F04BF41F40021704730B515
:103EF0004FF4607401F0004521F000411CE700BF61
:103F000050EA010208BF704730B54FF000050AE0E3
:103F100050EA010208BF704730B511F0004502D5E4
:103F2000404261EB41014FF4806404F132045FEAE6
:103F3000915C3FF4D8AE4FF003025FEADC0C18BF8F
:103F400003325FEADC0C18BF033202EBDC02C2F181
:103F5000200300FA03FC20FA02F001FA03FE40EA13
:103F60000E0021FA02F11444BDE600BF70B54FF017
:103F7000FF0C4CF4E06C1CEA11541DBF1CEA1355F5
:103F800094EA0C0F95EA0C0F00F0DEF82C4481EA5D
:103F9000030621EA4C5123EA4C5350EA013518BF7D
:103FA00052EA033541F4801143F4801338D0A0FB6A
:103FB00002CE4FF00005E1FB02E506F00042E0FB17
:103FC00003E54FF00006E1FB03569CF0000F18BF1D
:103FD0004EF0010EA4F1FF04B6F5007F64F54074C5
:103FE00004D25FEA4E0E6D4146EB060642EAC62158
:103FF00041EA55514FEAC52040EA5E504FEACE2EC5
:10400000B4F1FD0C88BFBCF5E06F1ED8BEF1004FC7
:1040100008BF5FEA500E50F1000041EB045170BD43
:1040200006F0004646EA010140EA020081EA030187
:10403000B4EB5C04C2BFD4EB0C0541EA045170BD83
:1040400041F480114FF0000E013C00F3AB8014F1FD
:10405000360FDEBF002001F0004170BDC4F1000446
:10406000203C35DA0C341BDC04F11404C4F12005C7
:1040700000FA05F320FA04F001FA05F240EA020022
:1040800001F0004221F0004110EBD37021FA04F658
:1040900042EB06015EEA430E08BF20EAD37070BD12
:1040A000C4F10C04C4F1200500FA04F320FA05F071
:1040B00001FA04F240EA020001F0004110EBD37073
:1040C00041F100015EEA430E08BF20EAD37070BDE3
:1040D000C4F1200500FA05F24EEA020E20FA04F3BC
:1040E00001FA05F243EA020321FA04F001F000416B
:1040F00021FA04F220EA020000EBD3705EEA430EDC
:1041000008BF20EAD37070BD94F0000F0FD101F00A
:104110000046400041EB010111F4801F08BF013C43
:10412000F7D041EA060195F0000F18BF704703F081
:104130000046520043EB030313F4801F08BF013D08
:10414000F7D043EA0603704794EA0C0F0CEA1355C4
:1041500018BF95EA0C0F0CD050EA410618BF52EA7E
:104160004306D1D181EA030101F000414FF0000084
:1041700070BD50EA410606BF1046194652EA430692
:1041800019D094EA0C0F02D150EA013613D195EA06
:104190000C0F05D152EA03361CBF104619460AD14E
:1041A00081EA030101F0004141F0FE4141F4700158
:1041B0004FF0000070BD41F0FE4141F4780170BD48
:1041C00070B54FF0FF0C4CF4E06C1CEA11541DBFAD
:1041D0001CEA135594EA0C0F95EA0C0F00F0A7F8AF
:1041E000A4EB050481EA030E52EA03354FEA0131DC
:1041F00000F088804FEA03334FF0805545EA1313EF
:1042000043EA12634FEA022245EA111545EA1065B6
:104210004FEA00260EF000419D4208BF964244F14D
:10422000FD0404F5407402D25B084FEA3202B61A6C
:1042300065EB03055B084FEA32024FF480104FF440
:10424000002CB6EB020E75EB030E22BFB61A7546B4
:1042500040EA0C005B084FEA3202B6EB020E75EB47
:10426000030E22BFB61A754640EA5C005B084FEAAF
:104270003202B6EB020E75EB030E22BFB61A75467C
:1042800040EA9C005B084FEA3202B6EB020E75EB87
:10429000030E22BFB61A754640EADC0055EA060E48
:1042A00018D04FEA051545EA16754FEA06164FEA8B
:1042B000C30343EA52734FEAC2025FEA1C1CC0D137
:1042C00011F4801F0BD141EA00014FF000004FF0C4
:1042D000004CB6E711F4801F04BF01430020B4F185
:1042E000FD0C88BFBCF5E06F3FF6AFAEB5EB030C3D
:1042F00004BFB6EB020C5FEA500C50F1000041EB3A
:10430000045170BD0EF0004E4EEA113114EB5C0406
:10431000C2BFD4EB0C0541EA045170BD41F48011D9
:104320004FF0000E013C90E645EA060E8DE60CEAE1
:10433000135594EA0C0F08BF95EA0C0F3FF43BAFFE
:1043400094EA0C0F0AD150EA01347FF434AF95EAB5
:104350000C0F7FF425AF104619462CE795EA0C0F99
:1043600006D152EA03353FF4FDAE1046194622E766
:1043700050EA410618BF52EA43067FF4C5AE50EA40
:1043800041047FF40DAF52EA43057FF4EBAE12E730
:104390004FF0FF3C06E000BF4FF0010C02E000BF11
:1043A0004FF0010C4DF804CD4FEA410C7FEA6C5CF4
:1043B0004FEA430C18BF7FEA6C5C1BD001B050EA97
:1043C000410C0CBF52EA430C91EA030F02BF90EA82
:1043D000020F0020704710F1000F91EA030F58BF41
:1043E000994208BF90422CBFD8176FEAE37040F0A3
:1043F000010070474FEA410C7FEA6C5C02D150EA41
:10440000013C07D14FEA430C7FEA6C5CD6D152EAFB
:10441000033CD3D05DF8040B704700BF84461046C0
:1044200062468C461946634600E000BF01B5FFF7BF
:10443000B7FF002848BF10F1000F01BD4DF808ED8F
:10444000FFF7F4FF0CBF012000205DF808FB00BF60
:104450004DF808EDFFF7EAFF34BF012000205DF8BA
:1044600008FB00BF4DF808EDFFF7E0FF94BF012007
:1044700000205DF808FB00BF4DF808EDFFF7CEFF08
:1044800094BF012000205DF808FB00BF4DF808ED47
:10449000FFF7C4FF34BF012000205DF808FB00BF18
:1044A0004FEA410C7FEA6C5C02D150EA013C0AD130
:1044B0004FEA430C7FEA6C5C02D152EA033C02D122
:1044C0004FF0000070474FF0010070474FEA410283
:1044D00012F5001215D211D56FF47873B3EB625256
:1044E00012D94FEAC12343F0004343EA505311F07D
:1044F000004F23FA02F018BF404270474FF000000F
:10450000704750EA013005D111F0004008BF6FF04C
:10451000004070474FF00000704700BF4275696C63
:104520007420776974682052656E657361732041E9
:104530006476616E63656420466C657869626C655B
:1045400020536F667477617265205061636B616799
:10455000652076657273696F6E20352E392E3000B6
:10456000352E392E3000000000000905F8B500BFD7
:10457000F8BC08BC9E467047F8B500BFF8BC08BC44
:104580009E467047434F4E5645594F52000000001B
:1045900042454C5400FFFFFF00FF0100010000FFF7
:1045A000FF0000010001FF0000000000000000000B
:1045B00000000000000000000000000000000000FB
:1045C00000000000000000000000000000000000EB
:1045D00000F0F0F0000000000000000000017F018A
:1045E0000000000000000000001C1C1C0000000077
:1045F00000008060301C8C60301C0C00000000004B
:1046000000000000000000000000000000000000AA
:1046100000000000000000E00000000000E00000DA
:104620000086E69F86868686E69F860000011F013B
:10463000010101011F010100000080C06020F8207D
:10464000E0C00000000003070C18FF70E1810000CB
:104650000000070F10107F100F070000806020601F
:1046600080000000E02000000F3020309F70DC3719
:104670001030C0000000100E0300071810180700CB
:104680000000C02020E0C0000000000080E01F38D3
:10469000E88703C43C040000070F1810100B070D37
:1046A0001010080000808C4C380000000000000052
:1046B00000000000000000000000000000000000FA
:1046C000000000000000000000000000000080E08A
:1046D000300804000000000000FEFF0100000000A0
:1046E000000000000000030F182040000004083004
:1046F000E0800000000000000000000001FFFE005C
:1047000000000000004020180F030000000000001F
:10471000000000000000C0000000000000426666CB
:104720003C18FF183C6666420000000000000300D1
:1047300000000000000000000000800000000000F9
:10474000001010101010FF101010101000000000CA
:104750000000030000000000000000000000000056
:104760000000000000000000000000000000000049
:1047700000808C4C380000000000000000000000A9
:1047800000000000000000000010101010101010B9
:1047900010101000000000000000000000000000E9
:1047A0000000000000000000000000000000000009
:1047B000000000000000000000001C1C1C000000A5
:1047C000000000000000000000000000E0380C00C5
:1047D0000000000080701C03000000000060380E24
:1047E0000100000000000000000080C06020206088
:1047F000C080000000FEFF010000000001FFFE007D
:104800000001070E181010180E070100000080802C
:1048100080C0E000000000000000000000FFFF007A
:104820000000000000001010101F1F1010100000EA
:104830000080402020202060C08000000003030092
:10484000804020381F070000001C1A19181818187B
:10485000181F00000080C020202060C080000000E1
:10486000000303001010182FE780000000070F104E
:10487000101010180F070000000000000000C0E03A
:10488000F000000000C0B088868180FFFF808000BB
:10489000000000000010101F1F1010000000E0605A
:1048A000606060606060000000003F100808081849
:1048B000F0E0000000070B101010101C0F030000A8
:1048C000000080C040202020E0C0000000FCFF214C
:1048D0001008080818F0E0000001070C181010106C
:1048E000080F03000000C0E06060606060E06000EE
:1048F000000003000000E0180700000000000000B6
:10490000001F1F00000000000080C0602020202049
:1049100060C080000087EF2C1818303068CF83000B
:1049200000070F0810101010180F07000000C0C07B
:1049300020202020C0800000001F3F604040402019
:1049400010FFFE0000000C1C101010080F030000E8
:104950000000000000000000000000000000000057
:10496000000E0E0E0000000000000000001C1C1CC9
:104970000000000000000000000000000000000037
:1049800000000000000C0C0000000000000000000F
:104990000058380000000000000000000000008007
:1049A0004020100000001028448201000000000098
:1049B00000000000000001020408100000000000D8
:1049C000000000000000000000848484848484844B
:1049D000848484000000000000000000000000004B
:1049E00000001020408000000000000000000000D7
:1049F0000000018244281000000010080402010099
:104A00000000000000C020201010101030E0C00096
:104A10000003030000F010080C0703000000000072
:104A20001C1C1C0000000000000000C04060202092
:104A30002040C00000FCFF01F00E03C1FE03807F98
:104A40000001070E081111101109040200000000F6
:104A500080E0E000000000000000807C4340477FD1
:104A6000F880000010181F1000000000131F1C1019
:104A700020E0E02020202060C080000000FFFF1028
:104A8000101010182FE78000101F1F1010101010AA
:104A9000180F0700000080C0402020202060E000A8
:104AA00000FCFF0100000000000001000001070EF3
:104AB000181010100804030020E0E02020202040FF
:104AC000C080000000FFFF000000000001FFFE00AA
:104AD000101F1F10101018080E07010020E0E02022
:104AE000202020202060800000FFFF101010107C8C
:104AF00000000000101F1F101010101010180600EA
:104B000020E0E020202020206060800000FFFF10D7
:104B10001010107C00000100101F1F10000000008A
:104B200000000000000080C06020202040E0000065
:104B300000FCFF0100004040C0C140400001070EE2
:104B4000181010100F0F000020E0E02000000000FF
:104B500020E0E02000FFFF101010101010FFFF00F9
:104B6000101F1F1000000000101F1F100000202049
:104B700020E0E020202000000000000000FFFF00F7
:104B80000000000000001010101F1F101010000087
:104B900000000000202020E0E02020200000000095
:104BA000000000FFFF0000000060E0808080C07F08
:104BB0003F00000020E0E020000020A06020200056
:104BC00000FFFF30187CE3C000000000101F1F1022
:104BD000000001131F1C181020E0E020000000005E
:104BE0000000000000FFFF000000000000000000C7
:104BF000101F1F10101010101018060020E0E0E029
:104C000000000000E0E0E02000FF013FFEC0E01EE9
:104C100001FFFF00101F1000031F0300101F1F10D3
:104C200020E0E0C0000000000020E02000FF0003C2
:104C3000071C78E08000FF00101F1000000000003B
:104C4000030F1F00000080C060202060C0800000B3
:104C500000FEFF010000000000FFFE000001070E43
:104C6000181010180C07010020E0E0202020202060
:104C700060C0800000FFFF2020202020301F0F0098
:104C8000101F1F100000000000000000000080C086
:104C900060202060C080000000FEFF0100000000D6
:104CA00000FFFE000001070E1111133C7C6721007C
:104CB00020E0E0202020202060C0800000FFFF10C6
:104CC0001030F0D0080F0700101F1F100000000365
:104CD0000F1C10100080C060202020204040E00009
:104CE00000070F0C1818303060E08100001F0C081E
:104CF00010101010180F07008060202020E0E02026
:104D0000202060800100000000FFFF000000000183
:104D100000000000101F1F100000000020E0E02035
:104D2000000000000020E02000FFFF000000000065
:104D30000000FF0000070F181010101010080700E7
:104D40002060E0E02000000020E060200000077FFD
:104D5000F88000807C03000000000000071F1C0793
:104D60000000000020E0E02000E0E0200020E02043
:104D70000007FFF8E01FFFFCE01F00000000031F1A
:104D80000300011F03000000002060E0A0000020DD
:104D9000E0602000000000038F7CF8C601000000E6
:104DA0000010181E130001171F1810002060E0E00B
:104DB0002000000020E06020000001073EF8E0181D
:104DC0000700000000000010101F1F10100000005E
:104DD00000806020202020A0E0E0200000000000F3
:104DE000C0F03E0F0300000000101C1F1710101031
:104DF000101806000000000000FC04040404040075
:104E00000000000000FF00000000000000000000A3
:104E1000007F404040404000000010E000000000E3
:104E20000000000000000000031C60800000000083
:104E300000000000000000030C708000000004046B
:104E4000040404FC0000000000000000000000FF5B
:104E500000000000000040404040407F0000000093
:104E600000000010080C040C0810000000000000F6
:104E70000000000000000000000000000000000032
:104E80000000000000000000000000000000000022
:104E90000000000000000000000000008080808012
:104EA00080808080808080800000000404080800EA
:104EB00000000000000000000000000000000000F2
:104EC00000000000000000000000000000000000E2
:104ED0000000000000000000000098D84464242472
:104EE000FCF80000000F1F18101010081F1F1018EA
:104EF0000020E0F000000000000000000000FFFFC4
:104F0000180804040CF8F00000001F0F181010100F
:104F1000180F030000000000000000000000000067
:104F200000E0F8180404043C3800000000030F0CF3
:104F30001010101008060000000000000000002003
:104F4000E0F0000000E0F81C04040408FFFF00008B
:104F500000030F18101010081F0F080000000000B9
:104F600000000000000000000000E0F84844444455
:104F70004C7870000000030F0C181010100804008B
:104F80000000000080C0602020E0C0000004040495
:104F9000FFFF040404040000000010101F1F101085
:104FA00010000000000000000000000000000000F1
:104FB000000070F88C04048CF874040C007076CF38
:104FC0008D8D8D89C87870000020E0F00000000011
:104FD000000000000000FFFF08040404FCF80000CB
:104FE00000101F1F100000101F1F10000000000005
:104FF00000606000000000000000040404FCFC00ED
:105000000000000000001010101F1F101010000002
:1050100000000000000000606000000000000000D0
:10502000040404FCFC0000000000C0C08080C07FBD
:105030003F0000000020E0F0000000000000000041
:105040000000FFFF80C0F41C0404000000101F1FBC
:105050001100031F1C1010000000202020E0F000B1
:10506000000000000000000000FFFF000000000042
:1050700000001010101F1F10101000000000000092
:10508000000000000000000004FCFC0804FCFC0818
:1050900004FCFC00101F1F10001F1F10001F1F101A
:1050A0000000000000000000000000000004FCFC04
:1050B00008080404FCF8000000101F1F1000001076
:1050C0001F1F100000000000000000000000000092
:1050D00000E0F0180C04040C18F0E00000030F0CC2
:1050E000101010100C0F0300000000000000000062
:1050F000000000000004FCFC080404040CF8F000AC
:105100000080FFFF889010101C0F030000000000BB
:10511000000000000000000000E0F81C0404040887
:10512000F8FC000000030F1810109088FFFF8000AB
:10513000000000000000000000000000040404FC67
:10514000FC100804040C0C001010101F1F1010108D
:10515000000000000000000000000000000000004F
:1051600000003078CCC48484840C1C0000001E181D
:1051700010101011190F06000000000000C0000000
:105180000000000000040404FFFF04040400000009
:10519000000000000F1F1010100C000000000000A5
:1051A00000000000000000000004FCFE00000004FD
:1051B000FCFE000000000F1F181010081F0F080051
:1051C00000000000000000000000000000040C3C93
:1051D000FCC40000C43C0C0400000000010F1E0EC3
:1051E00001000000000000000000000000000000BE
:1051F000043CFCC400E47CFC84807C040000071FA9
:10520000070000071F07000000000000000000006A
:10521000000000000004041C7CE4C0341C040400F2
:105220000010101C1601131F1C18100000000000B5
:10523000000000000000000000040C3CFCC400C49E
:105240003C0404000000C080C1370E0100000000D3
:1052500000000000000000000000000000001C042E
:1052600004C4F47C1C0400000000101C1F17111063
:1052700010180E0000000000000000F80C040000F0
:1052800000000000001028EF0000000000000000F7
:105290000000003F60400000000000000000FF0030
:1052A00000000000000000000000FF0000000000FF
:1052B000000000000000FF00000000000000040CDF
:1052C000F80000000000000000000000EF281000BF
:1052D00000000000000040603F00000000000000EF
:1052E0000018060202040810202030080000000008
:1052F00000000000000000000000000000000000AE
:10530000000000000000000000000000000000009D
:1053100000000000000000F8000000000000003362
:105320003000000000100C06100C06000000000009
:105330000000000040C07840C0784000043F0404F2
:105340003F040400007088FC08300000001820FFB3
:10535000211E0000F008F000E018000000211C03EE
:105360001E211E0000F00888700000001E2123246A
:105370001927211010160E00000000000000000088
:1053800000000000000000E0180402000000000718
:105390001820400000020418E0000000004020181F
:1053A00007000000404080F0804040000202010FF2
:1053B00001020200000000F0000000000101011FD6
:1053C00001010100000000000000000080B070003A
:1053D00000000000000000000000000000010101CA
:1053E0000101010100000000000000000030300059
:1053F0000000000000000000806018040060180633
:105400000100000000E010080810E000000F10206C
:1054100020100F00001010F8000000000020203FB6
:105420002020000000700808088870000030282440
:1054300022213000003008888848300000182020E1
:1054400020110E000000C02010F800000007042406
:10545000243F240000F8088888080800001921204B
:1054600020110E0000E0108888180000000F1120A5
:1054700020110E0000380808C83808000000003F5E
:10548000000000000070880808887000001C2221BD
:1054900021221C0000E010080810E000000031226A
:1054A00022110F00000000C0C0000000000000300A
:1054B000300000000000008000000000000080605C
:1054C00000000000000080402010080000010204DD
:1054D00008102000404040404040400004040404C4
:1054E0000404040000081020408000000020100880
:1054F00004020100007048080808F00000000030B5
:1055000036010000C030C828E810E0000718272442
:1055100023140B000000C038E0000000203C2302F0
:105520000227382008F8888888700000203F202053
:1055300020110E00C0300808080838000718202085
:105540002010080008F808080810E000203F20207C
:1055500020100F0008F88888E8081000203F20205D
:105560002320180008F88888E8081000203F200051
:1055700003000000C0300808083800000718202089
:10558000221E020008F808000008F808203F210148
:1055900001213F20000808F8080800000020203FF3
:1055A0002020000000000808F8080800C080808063
:1055B0007F00000008F888C028180800203F20015C
:1055C0002638200008F8080000000000203F2020B6
:1055D0002020300008F8F800F8F80800203F003FCD
:1055E000003F200008F830C00008F808203F2000E5
:1055F00007183F00E01008080810E0000F102020F6
:1056000020100F0008F808080808F000203F2101CA
:1056100001010000E01008080810E0000F18242421
:1056200038504F0008F8888888887000203F200094
:10563000030C30200070880808083800003820214A
:1056400021221C00180808F8080818000000203F54
:105650002000000008F808000008F808001F2020BB
:1056600020201F000878880000C83808000007388C
:105670000E010000F80800F80008F800033C0700DD
:10568000073C0300081868808068180820302C0345
:10569000032C30200838C800C83808000000203F1C
:1056A0002000000010080808C8380800203826210B
:1056B00020201800000000FE020202000000007F0F
:1056C00040404000000C30C000000000000000011D
:1056D0000638C00000020202FE0000000040404008
:1056E0007F0000000000040202020400000000002D
:1056F00000000000000000000000000080808080AA
:105700008080808000020204000000000000000091
:10571000000000000000808080800000001924222A
:1057200022223F2008F8008080000000003F112066
:1057300020110E000000008080800000000E11206B
:1057400020201100000000808088F800000E112049
:1057500020103F200000808080800000001F222257
:1057600022221300008080F0888888180020203FC3
:10577000202000000000808080808000006B9494D6
:105780009493600008F8008080800000203F210092
:1057900000203F2000809898000000000020203F5B
:1057A00020200000000000809898000000C0808049
:1057B000807F000008F8000080808000203F2402E5
:1057C0002D302000000808F8000000000020203FD5
:1057D000202000008080808080808000203F20008A
:1057E0003F20003F8080008080800000203F21001B
:1057F00000203F200000808080800000001F2020CB
:1058000020201F00808000808000000080FFA120F9
:1058100020110E000000008080808000000E11200A
:1058200020A0FF80808080008080800020203F2199
:10583000200001000000808080808000003324244C
:1058400024241900008080E0808000000000001FF8
:10585000202000008080000000808000001F2020A9
:1058600020103F20808080000080808000010E306A
:105870000806010080800080008080800F300C03CB
:105880000C300F0000808000808080000020312ECE
:105890000E312000808080000080808080818E70AA
:1058A0001806010000808080808080000021302C5C
:1058B0002221300000000000807C02020000000075
:1058C000003F404000000000FF000000000000001A
:1058D000FF0000000002027C800000000040403F0A
:1058E00000000000000601010202040400000000A4
:1058F00000000000000000000000000000000000A8
:105900000000FC000000000002000000000C020C7F
:10591000020000000000000090D0BCD0BC9000034A
:10592000000300001824FE448C000302070201005B
:105930001824D8B04C80000300010201C038E438BC
:10594000E00001020201020208060000000000005F
:1059500000000000000000F8040200000001020442
:10596000000204F800000004020100009060F860EA
:1059700090000000010000002020FC20200000001A
:105980000100000000000000000008060000000008
:105990002020202020000000000000000000000067
:1059A00000000002000000000080601C02000403F0
:1059B00000000000F8040404F800010202020100E3
:1059C0000008FC00000000020302000018844424C8
:1059D000180003020202020008042424D800010275
:1059E0000202010040B088FC8000000000030200B9
:1059F0003C242424C400010202020100F824242CC7
:105A0000C0000102020201000C04E41C04000000BA
:105A100003000000D8242424D8000102020201005F
:105A200038444444F8000003020201000000100062
:105A30000000000002000000000020000000000044
:105A4000060000000020508804020000000001024F
:105A500090909090900000000000000000020488E8
:105A600050200002010000001804C42418000000A7
:105A700002000000F804E494F800010202020200AF
:105A800000E09CF0800002030000030204FC2424D8
:105A9000D800020302020100F80404040C00010211
:105AA0000202010004FC0404F800020302020100E7
:105AB00004FC24740C0002030202030004FC24749E
:105AC0000C00020302000000F0080444CC40000176
:105AD0000202010004FC2020FC0402030000030277
